:100000000C9462000C948A000C948A000C948A0070
:100010000C948A000C948A000C948A000C94450479
:100020000C948A000C948A000C948A000C9484032B
:100030000C948A000C948A000C948A000C948A0018
:100040000C94E2020C948A000C9452030C942C033E
:100050000C948A000C948A000C948A000C948A00F8
:100060000C948A000C948A00000000080002010031
:100070000003040700000000000000000000000072
:10008000240027002A000000000023002600290089
:1000900000000000250028002B00040404040404D0
:1000A0000404020202020202030303030303010227
:1000B00004081020408001020408102001020408F6
:1000C0001020AF0411241FBECFEFD8E0DEBFCDBF9C
:1000D00011E0A0E0B1E0E6E8F1E102C005900D9288
:1000E000AA31B107D9F721E0AAE1B1E001C01D9220
:1000F000AF3FB207E1F710E0C2E6D0E004C02197BD
:10010000FE010E94B608C136D107C9F70E94490511
:100110000C94C1080C940000CF92DF92EF92FF92F2
:10012000DC01A03282E0B8070CF03EC0B7FD06C08B
:10013000A53BB1052CF0A4EBB0E002C0A0E0B0E01C
:100140008091EB0128E830E06901C81AD10887FDE9
:10015000D394CC0CDD1CCC0CDD1C0D2C000CEE085B
:10016000FF088091EC0128E532E0281B310987FD6A
:100170003395220F331F220F331FA901330F660B54
:10018000770B9A01AB012C193D094E095F090E94BA
:100190003B0724EB30E040E050E00E941107C20E24
:1001A000D31EE41EF51ED6019091EA019C3098F50D
:1001B0008091EB0148E850E0481B510987FD5395B9
:1001C000440F551F440F551FA417B5078CF080919D
:1001D000EC0128E532E0281B310987FD3395220F19
:1001E000331F220F331FAD012A173B070CF4A9015F
:1001F00042505109440F551F2FB7F894892F90E0B2
:10020000FC01EE0FFF1F8E0F9F1FFC01EB53FE4FF3
:10021000528341832FBFFF90EF90DF90CF900895DE
:1002200090E0FC01E859FF4F2491FC01E255FF4F9B
:100230003491FC01E656FF4FE491EE2309F43CC0F3
:10024000222339F1233091F038F42130A9F0223003
:1002500001F584B58F7D12C0273091F02830A1F0D0
:100260002430B9F4809180008F7D03C0809180009C
:100270008F77809380000DC084B58F7784BD09C0CF
:100280008091B0008F7703C08091B0008F7D809304
:10029000B000F0E0EE0FFF1FE057FF4FA591B491C3
:1002A0009FB7F894611104C08C913095382302C037
:1002B000EC913E2B3C939FBF0895CF93DF9390E04A
:1002C000FC01E255FF4F2491FC01E656FF4F84915B
:1002D000882361F190E0880F991FFC01E458FF4FDB
:1002E000C591D491FC01E057FF4FA591B4916111E4
:1002F00009C09FB7F8948881209582238883EC9168
:100300002E230BC0623061F49FB7F8948881322F9E
:10031000309583238883EC912E2B2C939FBF06C0AE
:100320008FB7F894E8812E2B28838FBFDF91CF9170
:1003300008953FB7F8948091240190912501A091F0
:100340002601B091270126B5A89B05C02F3F19F0C3
:100350000196A11DB11D3FBFBA2FA92F982F882745
:10036000820F911DA11DB11DBC01CD0142E0660FA0
:10037000771F881F991F4A95D1F70895CF92DF9272
:10038000EF92FF920F931F93CF93DF936C017A014B
:100390008B01C0E0D0E0CE15DF0581F0D8016D9172
:1003A0008D01D601ED91FC910190F081E02DC60107
:1003B0000995892B11F02196EECF7E01C701DF91BF
:1003C000CF911F910F91FF90EF90DF90CF90089504
:1003D000089580E090E00895FC01538D448D252F11
:1003E00030E0842F90E0821B930B541710F0CF96CF
:1003F000089501970895FC01918D828D981761F001
:10040000828DDF01A80FB11D5D968C91928D9F5F4B
:100410009F73928F90E008958FEF9FEF0895FC01F6
:10042000918D828D981731F0828DE80FF11D858DA9
:1004300090E008958FEF9FEF0895FC01918D228D3C
:10044000892F90E0805C9F4F821B91098F739927C1
:10045000089588E291E00E941D0221E0892B09F4B1
:1004600020E0822F0895FC01848DDF01A80FB11DCB
:10047000A35ABF4F2C91848D90E001968F739927DA
:10048000848FA689B7892C93A089B1898C918370B8
:1004900080648C93938D848D981306C00288F389B1
:1004A000E02D80818F7D80830895EF92FF920F93DE
:1004B0001F93CF93DF93EC0181E0888F9B8D8C8D10
:1004C000981305C0E889F989808185FD26C0F62E3C
:1004D0000B8D10E00F5F1F4F0F731127E02E8C8DD7
:1004E000E8120CC00FB607FCFACFE889F9898081C1
:1004F00085FFF5CFCE010E943302F1CF8B8DFE0137
:10050000E80FF11DE35AFF4FF0829FB7F8940B8F6D
:10051000EA89FB89808180620AC09FB7F894EE89DE
:10052000FF896083E889F989808183708064808392
:100530009FBF81E090E0DF91CF911F910F91FF90DD
:10054000EF900895CF93DF93EC01888D8823C9F055
:10055000EA89FB89808185FD05C0A889B9898C91CC
:1005600086FD0FC00FB607FCF5CF808185FFF2CF67
:10057000A889B9898C9185FFEDCFCE010E94330205
:10058000E7CFDF91CF91089580E090E0892B29F0AB
:100590000E94290281110C9400000895009769F0CF
:1005A000FC0101900020E9F73197AF01481B590B7E
:1005B000BC0188E291E00C94BE0180E090E00895D7
:1005C0000E94BC081F920F920FB60F9211242F9316
:1005D0003F938F939F93AF93BF938091200190910E
:1005E0002101A0912201B091230130911F0123E04C
:1005F000230F2D3720F40196A11DB11D05C026E85B
:10060000230F0296A11DB11D20931F01809320018D
:1006100090932101A0932201B093230180912401A2
:1006200090912501A0912601B09127010196A11D6D
:10063000B11D8093240190932501A0932601B093CE
:100640002701BF91AF919F918F913F912F910F9073
:100650000FBE0F901F9018951F920F920FB60F921A
:1006600011242F933F934F935F936F937F938F93B7
:100670009F93AF93BF93EF93FF9388E291E00E9423
:100680003302FF91EF91BF91AF919F918F917F9135
:100690006F915F914F913F912F910F900FBE0F90EF
:1006A0001F9018951F920F920FB60F9211242F933F
:1006B0008F939F93EF93FF93E0913801F09139016D
:1006C0008081E0913E01F0913F0182FD12C0908156
:1006D000809141018F5F8F7320914201821751F009
:1006E000E0914101F0E0E85DFE4F958F809341017C
:1006F00001C08081FF91EF919F918F912F910F9079
:100700000FBE0F901F9018951F920F920FB60F9269
:1007100011242F933F934F935F936F937F938F9306
:100720009F93AF93BF93EF93FF9380911E0187FF39
:1007300005C010928500109284001BC020911E01FC
:10074000022E000C330B8091E90190E02817390745
:1007500084F480911E01082E000C990BFC01EE0F11
:10076000FF1F8E0F9F1FFC01EB53FE4F808186FD04
:1007700015C080911E018F5F80931E0120911E0184
:10078000022E000C330B8091E90190E02817390705
:10079000C4F480911E018C3064F113C080911E015D
:1007A000082E000C990BFC01EE0FFF1F8E0F9F1FF0
:1007B000FC01EB53FE4F808160E08F730E941001BB
:1007C000D8CF8091840090918500049680349C4914
:1007D00018F480E49CE905C0809184009091850024
:1007E000049690938900809388008FEF80931E0178
:1007F0003BC0209184003091850080911E01082E1D
:10080000000C990BFC01EE0FFF1F8E0F9F1FFC01C8
:10081000EB53FE4F81819281820F931F9093890049
:100820008093880080911E01082E000C990BFC011A
:10083000EE0FFF1F8E0F9F1FFC01EB53FE4F8081B9
:1008400086FF12C080911E01082E000C990BFC013E
:10085000EE0FFF1F8E0F9F1FFC01EB53FE4F808199
:1008600061E08F730E941001FF91EF91BF91AF91F2
:100870009F918F917F916F915F914F913F912F91B8
:100880000F900FBE0F901F9018951F920F920FB6EA
:100890000F9211242F933F934F935F936F937F9306
:1008A0008F939F93AF93BF93EF93FF93E0E0F0E0BC
:1008B0000995FF91EF91BF91AF919F918F917F919A
:1008C0006F915F914F913F912F910F900FBE0F90BD
:1008D0001F901895CF92DF92EF92FF920F931F9384
:1008E000E82FF92F05C0015011092109310961F1E3
:1008F000908196239417B9F305C00150110921097D
:10090000310911F1908196239413F7CFC12CD12C8A
:10091000E12CF12C0AC08FEFC81AD80AE80AF80AAD
:100920000C151D052E053F0579F08081862384175F
:1009300091F36C2D7D2D8E2D9F2D1F910F91FF908A
:10094000EF90DF90CF90089560E070E080E090E05D
:100950001F910F91FF90EF90DF90CF90089510922C
:100960002B0110922A0188EE93E0A0E0B0E0809382
:100970002C0190932D01A0932E01B0932F0184E0C0
:1009800091E0909329018093280185EC90E0909369
:1009900035018093340184EC90E09093370180938B
:1009A000360180EC90E0909339018093380181EC1E
:1009B00090E090933B0180933A0182EC90E0909319
:1009C0003D0180933C0186EC90E090933F01809341
:1009D0003E01109241011092420110924301109287
:1009E0004401EAEBF0E0E491E093F101EBEBF0E09D
:1009F000E491E093F20186EA90E0FC012491E22F79
:100A0000F0E0EE0FFF1FE057FF4F25913491309338
:100A1000F4012093F301E7EAF0E0E491F0E0EE0F57
:100A2000FF1FEA57FF4F259134913093F601209331
:100A3000F501FC018491E82FF0E0EE0FFF1FE45870
:100A4000FF4F859194919093F8018093F7018BE586
:100A50009BE09093FA018093F9018091E9018C3039
:100A6000A0F491E0980F9093E9018093EA0190E05F
:100A7000FC01EE0FFF1F8E0F9F1FFC01EB53FE4F7B
:100A800088EB9BE09283818308958FEF8093EA0146
:100A90000895CF93DF93CDB7DEB7A1970FB6F89443
:100AA000DEBF0FBECDBF789484B5826084BD84B5AF
:100AB000816084BD85B5826085BD85B5816085BD59
:100AC00080916E00816080936E0010928100809111
:100AD0008100826080938100809181008160809399
:100AE0008100809180008160809380008091B100BE
:100AF00084608093B1008091B00081608093B000E9
:100B000080917A00846080937A0080917A0082607C
:100B100080937A0080917A00816080937A0080913E
:100B20007A00806880937A001092C100E0913801C9
:100B3000F091390182E08083E0913401F091350138
:100B40001082E0913601F091370180E180831092AC
:100B50004001E0913C01F0913D0186E08083E0910D
:100B60003A01F0913B01808180618083E0913A01FC
:100B7000F0913B01808188608083E0913A01F0919F
:100B80003B01808180688083E0913A01F0913B01D4
:100B900080818F7D808361E08CE00E945D0160E058
:100BA0008DE00E945D0161E082E00E945D0161E0F4
:100BB00083E00E945D018091EA018C3008F051C011
:100BC00061E089E00E945D018091EA01E82FF0E098
:100BD0009F01220F331FE20FF31FEB53FE4F908153
:100BE000907C996090831092EB011092EC016CE084
:100BF0000E94AA082CE0829FB001112440E050E03E
:100C00009B01240F351FF901EE0FFF1F2E0F3F1F11
:100C1000F901EB53FE4F908196FD16C04F5F5F4F79
:100C20004C30510569F781110FC01092800082E0AD
:100C3000809381001092850010928400B19A809177
:100C40006F00826080936F00E091EA01F0E0CF01D5
:100C5000880F991FE80FF91FEB53FE4F80818064C6
:100C6000808337EA232E30E0332E4AE0842E912C05
:100C7000A12CB12C60E08CE00E94100183E090E098
:100C80000197F1F761E08CE00E94100183E290E0AF
:100C90000197F1F760E08CE00E941001EBEBF0E0CF
:100CA0006491F1018491E82FF0E0EE0FFF1FEA5705
:100CB000FF4F8591949100E412E42FE030E0462F3D
:100CC0000E946A04611571058105910539F0DC0106
:100CD000CB010196A11DB11DBF7003C080E090E063
:100CE000DC01BC0197FF02C06F5F7F4F7595679570
:100CF000072E000C880B990B0E941E082DEC3CEC73
:100D000048EE51E40E9474070E94E6076B012B0134
:100D1000770F6608770877FE20C06DE288E291E0E1
:100D20000E94550222273327A901241935094609B3
:100D3000570919A2CE0181967C01CA01B901A5010A
:100D400094010E944307605DF70162937F012115C2
:100D500031054105510589F715C0A301920119A27A
:100D6000CE0181967C01CA01B901A50194010E94BE
:100D70004307605DF70162937F012115310541054D
:100D8000510589F7C7010E94CE0282E191E00E94DD
:100D9000CE0286E191E00E94CE0260E0F6E0CF163E
:100DA000D10454F482E00E94100160E083E00E94CC
:100DB000100184E690E009C083E00E94100161E028
:100DC00082E00E9410018AE590E00E948C000E945F
:100DD00099012B013C0182ECC82EDD24D394E12C37
:100DE000F12C0E949901DC01CB0184199509A60917
:100DF000B709883E9340A105B10598F321E0C21AD6
:100E0000D108E108F10888EE480E83E0581E611C05
:100E1000711CC114D104E104F10419F70E94C40249
:100E200029CF052E97FB1EF400940E94280757FD3A
:100E300007D00E94430707FC03D04EF40C94280708
:100E400050954095309521953F4F4F4F5F4F0895F6
:100E500090958095709561957F4F8F4F9F4F089526
:100E60000E946507A59F900DB49F900DA49F800DD3
:100E7000911D11240895B7FF0C9430070E9430078C
:100E8000821B930B0895A1E21A2EAA1BBB1BFD0126
:100E90000DC0AA1FBB1FEE1FFF1FA217B307E40759
:100EA000F50720F0A21BB30BE40BF50B661F771FB1
:100EB000881F991F1A9469F7609570958095909591
:100EC0009B01AC01BD01CF010895A29FB001B39F6A
:100ED000C001A39F700D811D1124911DB29F700D43
:100EE000811D1124911D08950E9488070C9470089B
:100EF0000E94690858F00E94620840F029F45F3FA0
:100F000029F00C94590851110C94A4080C945F0812
:100F10000E94810868F39923B1F3552391F3951B3F
:100F2000550BBB27AA2762177307840738F09F5F0A
:100F30005F4F220F331F441FAA1FA9F335D00E2E77
:100F40003AF0E0E832D091505040E695001CCAF7E4
:100F50002BD0FE2F29D0660F771F881FBB1F2617A7
:100F600037074807AB07B0E809F0BB0B802DBF017E
:100F7000FF2793585F4F3AF09E3F510578F00C944D
:100F800059080C94A4085F3FE4F3983ED4F3869587
:100F900077956795B795F7959F5FC9F7880F911D6E
:100FA0009695879597F90895E1E0660F771F881F5A
:100FB000BB1F621773078407BA0720F0621B730B0D
:100FC000840BBA0BEE1F88F7E09508950E94ED0799
:100FD0006894B1110C94A40808950E94890888F0BF
:100FE0009F5798F0B92F9927B751B0F0E1F0660FED
:100FF000771F881F991F1AF0BA95C9F714C0B1302E
:1010000091F00E94A308B1E008950C94A308672F03
:10101000782F8827B85F39F0B93FCCF3869577955C
:101020006795B395D9F73EF4909580957095619545
:101030007F4F8F4F9F4F0895E89409C097FB3EF470
:1010400090958095709561957F4F8F4F9F4F992315
:10105000A9F0F92F96E9BB279395F6958795779593
:101060006795B795F111F8CFFAF4BB0F11F460FF53
:101070001BC06F5F7F4F8F4F9F4F16C0882311F0AB
:1010800096E911C0772321F09EE8872F762F05C0BF
:10109000662371F096E8862F70E060E02AF09A955A
:1010A000660F771F881FDAF7880F9695879597F94F
:1010B000089597F99F6780E870E060E008959FEFDA
:1010C00080EC089500240A941616170618060906DF
:1010D000089500240A9412161306140605060895AE
:1010E000092E0394000C11F4882352F0BB0F40F436
:1010F000BF2B11F460FF04C06F5F7F4F8F4F9F4F76
:10110000089557FD9058440F551F59F05F3F71F0F7
:101110004795880F97FB991F61F09F3F79F087955E
:101120000895121613061406551FF2CF4695F1DFE7
:1011300008C0161617061806991FF1CF8695710577
:10114000610508940895E894BB2766277727CB01AB
:1011500097F90895991B79E004C0991F961708F034
:10116000961B881F7A95C9F780950895EE0FFF1F8B
:101170000590F491E02D099481E090E0F8940C94AE
:06118000C108F894FFCF46
:10118600000000005502BE01EC01A2021D02FB0197
:0A1196000F0220636D000D0A000037
:00000001FF
